{
  "abi": [
    {
      "inputs": [],
      "name": "args",
      "outputs": [
        {
          "internalType": "bytes",
          "name": "",
          "type": "bytes"
        }
      ],
      "stateMutability": "view",
      "type": "function"
    },
    {
      "inputs": [],
      "name": "binary_check",
      "outputs": [],
      "stateMutability": "nonpayable",
      "type": "function"
    },
    {
      "inputs": [
        {
          "internalType": "bytes",
          "name": "data",
          "type": "bytes"
        }
      ],
      "name": "bytesToString",
      "outputs": [
        {
          "internalType": "string",
          "name": "",
          "type": "string"
        }
      ],
      "stateMutability": "pure",
      "type": "function"
    },
    {
      "inputs": [],
      "name": "code",
      "outputs": [
        {
          "internalType": "string",
          "name": "",
          "type": "string"
        }
      ],
      "stateMutability": "view",
      "type": "function"
    },
    {
      "inputs": [
        {
          "internalType": "uint256",
          "name": "",
          "type": "uint256"
        }
      ],
      "name": "const_overrides",
      "outputs": [
        {
          "internalType": "string",
          "name": "key",
          "type": "string"
        },
        {
          "internalType": "string",
          "name": "value",
          "type": "string"
        }
      ],
      "stateMutability": "view",
      "type": "function"
    },
    {
      "inputs": [
        {
          "internalType": "string",
          "name": "file",
          "type": "string"
        }
      ],
      "name": "deploy",
      "outputs": [
        {
          "internalType": "address",
          "name": "",
          "type": "address"
        }
      ],
      "stateMutability": "payable",
      "type": "function"
    },
    {
      "inputs": [
        {
          "internalType": "bool",
          "name": "broadcast",
          "type": "bool"
        }
      ],
      "name": "set_broadcast",
      "outputs": [
        {
          "internalType": "contract HuffConfig",
          "name": "",
          "type": "address"
        }
      ],
      "stateMutability": "nonpayable",
      "type": "function"
    },
    {
      "inputs": [],
      "name": "should_broadcast",
      "outputs": [
        {
          "internalType": "bool",
          "name": "",
          "type": "bool"
        }
      ],
      "stateMutability": "view",
      "type": "function"
    },
    {
      "inputs": [],
      "name": "value",
      "outputs": [
        {
          "internalType": "uint256",
          "name": "",
          "type": "uint256"
        }
      ],
      "stateMutability": "view",
      "type": "function"
    },
    {
      "inputs": [],
      "name": "vm",
      "outputs": [
        {
          "internalType": "contract Vm",
          "name": "",
          "type": "address"
        }
      ],
      "stateMutability": "view",
      "type": "function"
    },
    {
      "inputs": [
        {
          "internalType": "string",
          "name": "key",
          "type": "string"
        },
        {
          "internalType": "address",
          "name": "value_",
          "type": "address"
        }
      ],
      "name": "with_addr_constant",
      "outputs": [
        {
          "internalType": "contract HuffConfig",
          "name": "",
          "type": "address"
        }
      ],
      "stateMutability": "nonpayable",
      "type": "function"
    },
    {
      "inputs": [
        {
          "internalType": "bytes",
          "name": "args_",
          "type": "bytes"
        }
      ],
      "name": "with_args",
      "outputs": [
        {
          "internalType": "contract HuffConfig",
          "name": "",
          "type": "address"
        }
      ],
      "stateMutability": "nonpayable",
      "type": "function"
    },
    {
      "inputs": [
        {
          "internalType": "string",
          "name": "key",
          "type": "string"
        },
        {
          "internalType": "bytes32",
          "name": "value_",
          "type": "bytes32"
        }
      ],
      "name": "with_bytes32_constant",
      "outputs": [
        {
          "internalType": "contract HuffConfig",
          "name": "",
          "type": "address"
        }
      ],
      "stateMutability": "nonpayable",
      "type": "function"
    },
    {
      "inputs": [
        {
          "internalType": "string",
          "name": "code_",
          "type": "string"
        }
      ],
      "name": "with_code",
      "outputs": [
        {
          "internalType": "contract HuffConfig",
          "name": "",
          "type": "address"
        }
      ],
      "stateMutability": "nonpayable",
      "type": "function"
    },
    {
      "inputs": [
        {
          "internalType": "string",
          "name": "key",
          "type": "string"
        },
        {
          "internalType": "string",
          "name": "value_",
          "type": "string"
        }
      ],
      "name": "with_constant",
      "outputs": [
        {
          "internalType": "contract HuffConfig",
          "name": "",
          "type": "address"
        }
      ],
      "stateMutability": "nonpayable",
      "type": "function"
    },
    {
      "inputs": [
        {
          "internalType": "string",
          "name": "key",
          "type": "string"
        },
        {
          "internalType": "uint256",
          "name": "value_",
          "type": "uint256"
        }
      ],
      "name": "with_uint_constant",
      "outputs": [
        {
          "internalType": "contract HuffConfig",
          "name": "",
          "type": "address"
        }
      ],
      "stateMutability": "nonpayable",
      "type": "function"
    },
    {
      "inputs": [
        {
          "internalType": "uint256",
          "name": "value_",
          "type": "uint256"
        }
      ],
      "name": "with_value",
      "outputs": [
        {
          "internalType": "contract HuffConfig",
          "name": "",
          "type": "address"
        }
      ],
      "stateMutability": "nonpayable",
      "type": "function"
    }
  ],
  "bytecode": {
    "object": "0x608060405234801561001057600080fd5b50612492806100206000396000f3fe6080604052600436106100fe5760003560e01c80636b07af1011610095578063c5effd0211610064578063c5effd02146102b7578063c7602316146102ce578063df9f3dee146102e1578063e5df307614610235578063e9e68e1d1461031157600080fd5b80636b07af10146102355780636fcef9d5146102555780637dc2225f146102755780638093a1b91461029757600080fd5b806339614e4f116100d157806339614e4f146101b45780633a768463146101d45780633fa4f245146101fc5780634e9b75b61461022057600080fd5b80630c7d1681146101035780632232d9081461013a57806324c12bf61461017257806328764d1414610194575b600080fd5b34801561010f57600080fd5b5061012361011e366004611a72565b61033b565b604051610131929190611adb565b60405180910390f35b34801561014657600080fd5b5061015a610155366004611bdb565b61047f565b6040516001600160a01b039091168152602001610131565b34801561017e57600080fd5b50610187610494565b6040516101319190611c0f565b3480156101a057600080fd5b5061015a6101af366004611c22565b610522565b3480156101c057600080fd5b506101876101cf366004611c22565b610530565b3480156101e057600080fd5b5061015a737109709ecfa91a80626ff3989d68f67f5b1dd12d81565b34801561020857600080fd5b5061021260025481565b604051908152602001610131565b34801561022c57600080fd5b50610187610748565b34801561024157600080fd5b5061015a610250366004611c6a565b610755565b34801561026157600080fd5b5061015a610270366004611cae565b6107df565b34801561028157600080fd5b5061015a610290366004611a72565b6002553090565b3480156102a357600080fd5b5061015a6102b2366004611d0b565b610820565b3480156102c357600080fd5b506102cc61087c565b005b61015a6102dc366004611bdb565b610a23565b3480156102ed57600080fd5b5061015a6102fc366004611d6e565b6003805460ff19169115159190911790553090565b34801561031d57600080fd5b5060035461032b9060ff1681565b6040519015158152602001610131565b6004818154811061034b57600080fd5b906000526020600020906002020160009150905080600001805461036e90611d90565b80601f016020809104026020016040519081016040528092919081815260200182805461039a90611d90565b80156103e75780601f106103bc576101008083540402835291602001916103e7565b820191906000526020600020905b8154815290600101906020018083116103ca57829003601f168201915b5050505050908060010180546103fc90611d90565b80601f016020809104026020016040519081016040528092919081815260200182805461042890611d90565b80156104755780601f1061044a57610100808354040283529160200191610475565b820191906000526020600020905b81548152906001019060200180831161045857829003601f168201915b5050505050905082565b60008061048c8382611e19565b503092915050565b600080546104a190611d90565b80601f01602080910402602001604051908101604052809291908181526020018280546104cd90611d90565b801561051a5780601f106104ef5761010080835404028352916020019161051a565b820191906000526020600020905b8154815290600101906020018083116104fd57829003601f168201915b505050505081565b6000600161048c8382611e19565b60408051808201909152601081526f181899199a1a9b1b9c1cb0b131b232b360811b602082015281516060919060009061056b906002611eee565b610576906002611f05565b6001600160401b0381111561058d5761058d611b09565b6040519080825280601f01601f1916602001820160405280156105b7576020820181803683370190505b509050600360fc1b816000815181106105d2576105d2611f18565b60200101906001600160f81b031916908160001a905350600f60fb1b8160018151811061060157610601611f18565b60200101906001600160f81b031916908160001a90535060005b84518110156107405782600486838151811061063957610639611f18565b016020015182516001600160f81b031990911690911c60f81c90811061066157610661611f18565b01602001516001600160f81b0319168261067c836002611eee565b610687906002611f05565b8151811061069757610697611f18565b60200101906001600160f81b031916908160001a905350828582815181106106c1576106c1611f18565b602091010151815160f89190911c600f169081106106e1576106e1611f18565b01602001516001600160f81b031916826106fc836002611eee565b610707906003611f05565b8151811061071757610717611f18565b60200101906001600160f81b031916908160001a9053508061073881611f2e565b91505061061b565b509392505050565b600180546104a190611d90565b6000600460405180604001604052808581526020016107948560405160200161078091815260200190565b604051602081830303815290604052610530565b905281546001810183556000928352602090922081519192600202019081906107bd9082611e19565b50602082015160018201906107d29082611e19565b5050503090505b92915050565b60006004604051806040016040528085815260200161079485604051602001610780919060609190911b6bffffffffffffffffffffffff1916815260140190565b6040805180820190915282815260208101829052600480546001810182556000918252825191929160029091027f8a35acfbc15ff81a39ae7d344fd709f28e8600b4aa8c65c6b64bfe7fe36bd19b019081906107bd9082611e19565b604080516001808252818301909252600091816020015b60608152602001906001900390816108935790505090506040518060600160405280602a81526020016123b5602a9139816000815181106108d6576108d6611f18565b6020908102919091010152604051638916046760e01b8152600090737109709ecfa91a80626ff3989d68f67f5b1dd12d9063891604679061091b908590600401611f47565b6000604051808303816000875af115801561093a573d6000803e3d6000fd5b505050506040513d6000823e601f3d908101601f191682016040526109629190810190611fa9565b905060008160008151811061097957610979611f18565b01602001516001600160f81b0319169050600160f81b811480610a1d5760405162461bcd60e51b815260206004820152604b60248201527f496e76616c69642068756666632062696e6172792e2052756e20606375726c2060448201527f2d4c206765742e687566662e7368207c20626173686020616e6420606875666660648201526a3ab830103a37903334bc1760a91b608482015260a4015b60405180910390fd5b50505050565b6000610a2d61087c565b6000610a608360408051808201825260008082526020918201528151808301909252825182529182019181019190915290565b60408051808201825260018152602f60f81b602080830191825283518085018552600080825290820181905284518086019095529251845283015291925090610aa98383611663565b610ab4906001611f05565b6001600160401b03811115610acb57610acb611b09565b604051908082528060200260200182016040528015610afe57816020015b6060815260200190600190039081610ae95790505b50905060005b8151811015610b4f57610b1f610b1a8585611704565b611723565b828281518110610b3157610b31611f18565b60200260200101819052508080610b4790611f2e565b915050610b04565b50604080516001808252818301909252600091816020015b6060815260200190600190039081610b675790505090506040518060600160405280602881526020016124356028913981600081518110610baa57610baa611f18565b6020908102919091010152604051638916046760e01b8152600090737109709ecfa91a80626ff3989d68f67f5b1dd12d90638916046790610bef908590600401611f47565b6000604051808303816000875af1158015610c0e573d6000803e3d6000fd5b505050506040513d6000823e601f3d908101601f19168201604052610c369190810190611fa9565b90506000610c73610c4683612016565b604051602001610c5891815260200190565b6040516020818303038152906040528051906020012061178b565b9050600084600081518110610c8a57610c8a611f18565b602002602001015190506001855111610cc6578181604051602001610cb092919061203a565b6040516020818303038152906040529050610d7c565b60015b60018651610cd79190612080565b811015610d2e5781868281518110610cf157610cf1611f18565b6020026020010151604051602001610d0a929190612093565b60405160208183030381529060405291508080610d2690611f2e565b915050610cc9565b5080828660018851610d409190612080565b81518110610d5057610d50611f18565b6020026020010151604051602001610d6a939291906120cf565b60405160208183030381529060405290505b60408051600380825260808201909252600091816020015b6060815260200190600190039081610d945790505090506040518060600160405280602981526020016123df6029913981600081518110610dd757610dd7611f18565b602002602001018190525081604051602001610df39190612133565b60405160208183030381529060405281600181518110610e1557610e15611f18565b60200260200101819052506000604051602001610e3291906121e1565b60405160208183030381529060405281600281518110610e5457610e54611f18565b6020908102919091010152604051638916046760e01b8152737109709ecfa91a80626ff3989d68f67f5b1dd12d90638916046790610e96908490600401611f47565b6000604051808303816000875af1158015610eb5573d6000803e3d6000fd5b505050506040513d6000823e601f3d908101601f19168201604052610edd9190810190611fa9565b5060408051600380825260808201909252600091816020015b6060815260200190600190039081610ef65790505090506040518060600160405280602d8152602001612408602d913981600081518110610f3957610f39611f18565b602002602001018190525082604051602001610f559190612133565b60405160208183030381529060405281600181518110610f7757610f77611f18565b60200260200101819052508a604051602001610f939190612133565b60405160208183030381529060405281600281518110610fb557610fb5611f18565b6020908102919091010152604051638916046760e01b8152737109709ecfa91a80626ff3989d68f67f5b1dd12d90638916046790610ff7908490600401611f47565b6000604051808303816000875af1158015611016573d6000803e3d6000fd5b505050506040513d6000823e601f3d908101601f1916820160405261103e9190810190611fa9565b5060408051600380825260808201909252600091816020015b6060815260200190600190039081611057575050600454909150156112ed576004805461108391611f05565b6001600160401b0381111561109a5761109a611b09565b6040519080825280602002602001820160405280156110cd57816020015b60608152602001906001900390816110b85790505b509050604051806040016040528060028152602001612d6360f01b815250816003815181106110fe576110fe611f18565b6020026020010181905250611126604051806040016040528060608152602001606081525090565b60005b6004548110156112ea576004818154811061114657611146611f18565b906000526020600020906002020160405180604001604052908160008201805461116f90611d90565b80601f016020809104026020016040519081016040528092919081815260200182805461119b90611d90565b80156111e85780601f106111bd576101008083540402835291602001916111e8565b820191906000526020600020905b8154815290600101906020018083116111cb57829003601f168201915b5050505050815260200160018201805461120190611d90565b80601f016020809104026020016040519081016040528092919081815260200182805461122d90611d90565b801561127a5780601f1061124f5761010080835404028352916020019161127a565b820191906000526020600020905b81548152906001019060200180831161125d57829003601f168201915b5050505050815250509150816000015182602001516040516020016112a09291906121fe565b60408051601f19818403018152919052836112bc836004611f05565b815181106112cc576112cc611f18565b602002602001018190525080806112e290611f2e565b915050611129565b50505b60405180604001604052806005815260200164687566666360d81b8152508160008151811061131e5761131e611f18565b60200260200101819052508360405160200161133a9190612133565b6040516020818303038152906040528160018151811061135c5761135c611f18565b60200260200101819052506040518060400160405280600281526020016116b160f11b8152508160028151811061139557611395611f18565b6020908102919091010152604051638916046760e01b8152600090737109709ecfa91a80626ff3989d68f67f5b1dd12d906389160467906113da908590600401611f47565b6000604051808303816000875af11580156113f9573d6000803e3d6000fd5b505050506040513d6000823e601f3d908101601f191682016040526114219190810190611fa9565b9050600081600160405160200161143992919061222e565b60408051808303601f19018152600280845260608401909252925060009190816020015b606081526020019060019003908161145d57905050905060405180604001604052806002815260200161726d60f01b815250816000815181106114a2576114a2611f18565b6020026020010181905250866040516020016114be9190612133565b604051602081830303815290604052816001815181106114e0576114e0611f18565b6020908102919091010152604051638916046760e01b8152737109709ecfa91a80626ff3989d68f67f5b1dd12d90638916046790611522908490600401611f47565b6000604051808303816000875af1158015611541573d6000803e3d6000fd5b505050506040513d6000823e601f3d908101601f191682016040526115699190810190611fa9565b5060035460009060ff16156115dd57604080516302bf260160e61b81529051737109709ecfa91a80626ff3989d68f67f5b1dd12d9163afc9804091600480830192600092919082900301818387803b1580156115c457600080fd5b505af11580156115d8573d6000803e3d6000fd5b505050505b60025483516020850182f09150506001600160a01b0381166116505760405162461bcd60e51b815260206004820152602660248201527f487566664465706c6f79657220636f756c64206e6f74206465706c6f7920636f6044820152651b9d1c9858dd60d21b6064820152608401610a14565b9f9e505050505050505050505050505050565b6000808260000151611687856000015186602001518660000151876020015161182b565b6116919190611f05565b90505b835160208501516116a59190611f05565b81116116fd57816116b581611f2e565b92505082600001516116ec8560200151836116d09190612080565b86516116dc9190612080565b838660000151876020015161182b565b6116f69190611f05565b9050611694565b5092915050565b60408051808201909152600080825260208201526116fd83838361194d565b6060600082600001516001600160401b0381111561174357611743611b09565b6040519080825280601f01601f19166020018201604052801561176d576020820181803683370190505b50905060006020820190506116fd81856020015186600001516119f8565b60608060005b60208110156116fd5781601a8583602081106117af576117af611f18565b6117bb9291901a61224c565b6117c690606161227c565b6040516020016117e9919060f89190911b6001600160f81b031916815260010190565b60408051601f19818403018152908290526118079291602001612295565b6040516020818303038152906040529150808061182390611f2e565b915050611791565b6000838186851161193657602085116118e55760008515611877576001611853876020612080565b61185e906008611eee565b6118699060026123a8565b6118739190612080565b1990505b845181166000876118888b8b611f05565b6118929190612080565b855190915083165b8281146118d7578186106118bf576118b28b8b611f05565b9650505050505050611945565b856118c981611f2e565b96505083865116905061189a565b859650505050505050611945565b508383206000905b6118f78689612080565b8211611934578583208082036119135783945050505050611945565b61191e600185611f05565b935050818061192c90611f2e565b9250506118ed565b505b6119408787611f05565b925050505b949350505050565b6040805180820190915260008082526020820152600061197f856000015186602001518660000151876020015161182b565b60208087018051918601919091525190915061199b9082612080565b8352845160208601516119ae9190611f05565b81036119bd57600085526119ef565b835183516119cb9190611f05565b855186906119da908390612080565b90525083516119e99082611f05565b60208601525b50909392505050565b60208110611a305781518352611a0f602084611f05565b9250611a1c602083611f05565b9150611a29602082612080565b90506119f8565b6000198115611a5f576001611a46836020612080565b611a52906101006123a8565b611a5c9190612080565b90505b9151835183169219169190911790915250565b600060208284031215611a8457600080fd5b5035919050565b60005b83811015611aa6578181015183820152602001611a8e565b50506000910152565b60008151808452611ac7816020860160208601611a8b565b601f01601f19169290920160200192915050565b604081526000611aee6040830185611aaf565b8281036020840152611b008185611aaf565b95945050505050565b634e487b7160e01b600052604160045260246000fd5b604051601f8201601f191681016001600160401b0381118282101715611b4757611b47611b09565b604052919050565b60006001600160401b03821115611b6857611b68611b09565b50601f01601f191660200190565b6000611b89611b8484611b4f565b611b1f565b9050828152838383011115611b9d57600080fd5b828260208301376000602084830101529392505050565b600082601f830112611bc557600080fd5b611bd483833560208501611b76565b9392505050565b600060208284031215611bed57600080fd5b81356001600160401b03811115611c0357600080fd5b61194584828501611bb4565b602081526000611bd46020830184611aaf565b600060208284031215611c3457600080fd5b81356001600160401b03811115611c4a57600080fd5b8201601f81018413611c5b57600080fd5b61194584823560208401611b76565b60008060408385031215611c7d57600080fd5b82356001600160401b03811115611c9357600080fd5b611c9f85828601611bb4565b95602094909401359450505050565b60008060408385031215611cc157600080fd5b82356001600160401b03811115611cd757600080fd5b611ce385828601611bb4565b92505060208301356001600160a01b0381168114611d0057600080fd5b809150509250929050565b60008060408385031215611d1e57600080fd5b82356001600160401b0380821115611d3557600080fd5b611d4186838701611bb4565b93506020850135915080821115611d5757600080fd5b50611d6485828601611bb4565b9150509250929050565b600060208284031215611d8057600080fd5b81358015158114611bd457600080fd5b600181811c90821680611da457607f821691505b602082108103611dc457634e487b7160e01b600052602260045260246000fd5b50919050565b601f821115611e1457600081815260208120601f850160051c81016020861015611df15750805b601f850160051c820191505b81811015611e1057828155600101611dfd565b5050505b505050565b81516001600160401b03811115611e3257611e32611b09565b611e4681611e408454611d90565b84611dca565b602080601f831160018114611e7b5760008415611e635750858301515b600019600386901b1c1916600185901b178555611e10565b600085815260208120601f198616915b82811015611eaa57888601518255948401946001909101908401611e8b565b5085821015611ec85787850151600019600388901b60f8161c191681555b5050505050600190811b01905550565b634e487b7160e01b600052601160045260246000fd5b80820281158282048414176107d9576107d9611ed8565b808201808211156107d9576107d9611ed8565b634e487b7160e01b600052603260045260246000fd5b600060018201611f4057611f40611ed8565b5060010190565b6000602080830181845280855180835260408601915060408160051b870101925083870160005b82811015611f9c57603f19888603018452611f8a858351611aaf565b94509285019290850190600101611f6e565b5092979650505050505050565b600060208284031215611fbb57600080fd5b81516001600160401b03811115611fd157600080fd5b8201601f81018413611fe257600080fd5b8051611ff0611b8482611b4f565b81815285602083850101111561200557600080fd5b611b00826020830160208601611a8b565b80516020808301519190811015611dc45760001960209190910360031b1b16919050565b675f5f54454d505f5f60c01b81526000835161205d816008850160208801611a8b565b835190830190612074816008840160208801611a8b565b01600801949350505050565b818103818111156107d9576107d9611ed8565b600083516120a5818460208801611a8b565b602f60f81b90830190815283516120c3816001840160208801611a8b565b01600101949350505050565b600084516120e1818460208901611a8b565b602f60f81b908301908152675f5f54454d505f5f60c01b60018201528451612110816009840160208901611a8b565b8451910190612126816009840160208801611a8b565b0160090195945050505050565b637372632f60e01b815260008251612152816004850160208701611a8b565b6417343ab33360d91b6004939091019283015250600901919050565b6000815461217b81611d90565b6001828116801561219357600181146121a8576121d7565b60ff19841687528215158302870194506121d7565b8560005260208060002060005b858110156121ce5781548a8201529084019082016121b5565b50505082870194505b5050505092915050565b60006121ed828461216e565b600560f91b81526001019392505050565b60008351612210818460208801611a8b565b603d60f81b90830190815283516120c3816001840160208801611a8b565b60008351612240818460208801611a8b565b611b008184018561216e565b600060ff83168061226d57634e487b7160e01b600052601260045260246000fd5b8060ff84160691505092915050565b60ff81811683821601908111156107d9576107d9611ed8565b600083516122a7818460208801611a8b565b8351908301906122bb818360208801611a8b565b01949350505050565b600181815b808511156122ff5781600019048211156122e5576122e5611ed8565b808516156122f257918102915b93841c93908002906122c9565b509250929050565b600082612316575060016107d9565b81612323575060006107d9565b816001811461233957600281146123435761235f565b60019150506107d9565b60ff84111561235457612354611ed8565b50506001821b6107d9565b5060208310610133831016604e8410600b8410161715612382575081810a6107d9565b61238c83836122c4565b80600019048211156123a0576123a0611ed8565b029392505050565b6000611bd4838361230756fe2e2f6c69622f666f756e6472792d687566662f736372697074732f62696e6172795f636865636b2e73682e2f6c69622f666f756e6472792d687566662f736372697074732f66696c655f7772697465722e73682e2f6c69622f666f756e6472792d687566662f736372697074732f726561645f616e645f617070656e642e73682e2f6c69622f666f756e6472792d687566662f736372697074732f72616e645f62797465732e7368a264697066735822122094b62844c806c64b47e674e3b5880cb27205c768cb1d9947a7f40d69a9fafd3464736f6c63430008110033",
    "linkReferences": {}
  },
  "methodIdentifiers": {
    "args()": "4e9b75b6",
    "binary_check()": "c5effd02",
    "bytesToString(bytes)": "39614e4f",
    "code()": "24c12bf6",
    "const_overrides(uint256)": "0c7d1681",
    "deploy(string)": "c7602316",
    "set_broadcast(bool)": "df9f3dee",
    "should_broadcast()": "e9e68e1d",
    "value()": "3fa4f245",
    "vm()": "3a768463",
    "with_addr_constant(string,address)": "6fcef9d5",
    "with_args(bytes)": "28764d14",
    "with_bytes32_constant(string,bytes32)": "e5df3076",
    "with_code(string)": "2232d908",
    "with_constant(string,string)": "8093a1b9",
    "with_uint_constant(string,uint256)": "6b07af10",
    "with_value(uint256)": "7dc2225f"
  },
  "id": 1
}